:02000002B0004C
:1040000000400B005A750B00000006000C00050272
:084010000401B41400000000DB
:04401800EC660B0047
:10401C00034613F8012B002AFBD1181A01387047FC
:10402C0009480A49884208B505D0094A824202D09B
:10403C00121A02F0ABFA0748074A0021121A02F0D2
:10404C00B3FA014808BD00BFB8E50320C0740B00EB
:10405C0024E6032024E60320F0E7032070B5074E86
:10406C00074C01F0C3FEA41BA4080025AC4200D1F0
:10407C0070BD56F8043B98470135F7E778740B0090
:10408C009C740B0000F06CB808B500F045F8BDE866
:10409C00084001F063BE01F059BC01F05FBC0000A8
:1040AC0008B5034A03490C2001F0B4FBFEE700BF3E
:1040BC0071550B0000670B000078B0FA80F04009D6
:1040CC00704701230370704703498B6813B10322B7
:1040DC0008461847704700BF28E6032038B50B4D3B
:1040EC002C78BFF35B8F14F001040CD12846FFF73A
:1040FC00E3FF40B1064B28469C601C74FFF7E1FFC0
:10410C00044802F03DFA024838BD00BF24E6032003
:10411C0028E60320D5400B0008B5074800F005FD44
:10412C00052002F099F928B1FFF7D8FFBDE8084047
:10413C0001F0EDBD08BD00BF48E6032010B5074CEB
:10414C00204600F0CFFE0121204600F076FC002234
:10415C004FF00113C4E9042310BD00BF48E603204F
:10416C001FB5164800F0B8FC0021052002F04AF9F2
:10417C00FFF7B4FF124A41F28833CDE9012301A9BC
:10418C002123039301F0BAFDFFF7A8FF01F0BBFD5B
:10419C00FFF7D4FF0022114601A8019201F0F2F9B9
:1041AC00019B06483C2B0CBF0649074901F028FD32
:1041BC00024805B05DF804EB01F002B948E60320B3
:1041CC000C00010015670B0024670B0010B5094BA0
:1041DC00094A9A600024C3E90044032001F022FB41
:1041EC002146012001F02EFBBDE8104003480721B9
:1041FC0000F044BC3CE603200000FFFF48E603202F
:10420C00704710B510210446FFF747FF204610BD3C
:10421C000EB403B503AB002153F8042B019301F04A
:10422C0020FD02B05DF804EB03B0704773B5044693
:10423C0008462279A36832B1A3B90B4902B0BDE894
:10424C00704001F0DDBC094A267B094D0949647BAD
:10425C00012E18BF2946CDE900140749FFF7D8FFF6
:10426C0002B070BD054AEFE742670B0039670B00DF
:10427C003E670B003A670B0058670B0031670B0069
:10428C002DE9F04F85B01F46BDF93880BDF83C30A4
:10429C00A8EB0209A7EB010AB9F1000FB8BFC9F1ED
:1042AC000009BAF1000FB8BFCAF1000AD145834624
:1042BC000C46154604DD3A462C4647460D469046BC
:1042CC00BC4205DD2A464546904622463C461746EA
:1042DC003E1BB2B20092A8EB050282EAE271A1EB9E
:1042EC00E271C6F3C03202FA86F64545B4BF01222C
:1042FC004FF0FF32019176100292BC421CDCDBF8CD
:10430C0000200393D145D2F81880C7BF2946224616
:10431C002A4621465846C047019A039BB61AB1B2A9
:10432C0036B2002E05DA029A1544009A56182DB2B0
:10433C0036B2013424B2E0E705B0BDE8F08F704727
:10434C0010B404682469A4465DF8044B604730B48B
:10435C000468BDF808500295A46BA44630BC6047B5
:10436C0030B40468BDF808500295E46BA44630BC28
:10437C00604770B4BDF90C50BDF810600468CDE90D
:10438C000356246CA44670BC60472DE9F3411C46CF
:10439C000368BDF820805B6905461646013C344431
:1043AC000F4624B298472B68CDF8048000949C6A81
:1043BC0028463B4632463946A0472B68DB6A2846DE
:1043CC0002B0BDE8F04118472DE9F3411D460368E2
:1043DC00BDF820805B69044617460E469847CDE928
:1043EC00007822686B1E3344956A20461BB23A460D
:1043FC003146A8472368DB6A204602B0BDE8F0418D
:10440C0018472DE9F3471E460368BDF928905B69F0
:10441C00BDF82C800C460546174698472644B442F6
:10442C002B680BDACDF80080D3F820A021464B4640
:10443C003A4628460134D04724B2F0E7DB6A2846D6
:10444C0002B0BDE8F047184713B502680191B0F906
:10445C000E100091146CB0F90C3000221146A047DC
:10446C0002B010BD2DE9F74399421646BDF92870EC
:10447C00BDF82C90026880460D461C4613D1BE42F6
:10448C00C8BF3346CDF82890C4BF3E461F467B1CA0
:10449C00946B9B1B1BB2324629464046A44603B084
:1044AC00BDE8F0436047BE420AD19942C2BF0B46F9
:1044BC0025461C46631CCDF82890D46B5B1BE9E7A2
:1044CC0053699847CDE90079D8F8003040469F6A87
:1044DC00324623462946B847D8F80030DB6A4046B6
:1044EC0003B0BDE8F04318472DE9F3471D460368B8
:1044FC00BDF82C805B69BDF9289004460F46164622
:10450C0098472368CDF80080D3F824A032462B4678
:10451C0039462046D0472368CDF8008009F1FF3298
:10452C003244D3F824A039462B46204612B2D04749
:10453C002368CDF80080D3F820A032464B4639468C
:10454C002046D0476B1ED9192368CDF800801D6A10
:10455C0020464B46324609B2A8472368DB6A204600
:10456C0002B0BDE8F0471847704701F00303B0F9FB
:10457C000A208376C907B0F9083059BF8381C281FC
:10458C008281C3817047000030B54281C281074AE5
:10459C00074D0181002481814FF0FF31C0E90512E4
:1045AC004460056004610477046230BD01010001C0
:1045BC00806C0B002DE9F04F89B0CDE90212026836
:1045CC00BDF948800493BDF94C3052690593BDF890
:1045DC0050A00446904718F107024FF0000648BF60
:1045EC0008F10E024FEAE20B01963546039B019A45
:1045FC00BDF904109A18059B8B4212B227DD049B5F
:10460C0033444FF0000906930FFA89F080451FFAE6
:10461C0089F117DD4F0705BF069BC0106D001D5CAF
:10462C0018BFEDB22B060AD5029B206807921944DD
:10463C00836909B21F4620465346B847079A09F1C9
:10464C000109E1E7019B013301935E44CEE7236846
:10465C00DB6A204609B0BDE8F04F18472DE9F04F52
:10466C002DED028B91B01646026ABDF874809DF850
:10467C0078509DF87C4003911F46BDF87030049330
:10468C008346002A40F0C580B0F90C308B4240F3D1
:10469C004C81B0F90E30B34240F34781062313FB33
:1046AC000513002B40F3418106EBC403002B40F3B0
:1046BC003C81037F1BB9AF2F84BF0137FFB2DBF8FE
:1046CC00003058465B6998470522099200220592F2
:1046DC00984A07EB8703D3180C93B3B20693059A49
:1046EC000C9B9B5C0793ABB20B93BDF80C300893FF
:1046FC00039B02FB05F919FA83F90FFA89F308EE0B
:10470C00103A08230A93039B02EB030A4FF00009AB
:10471C000FFA8AFA079ADBF80030D20752D5012D2E
:10472C001FFA89F23ED1012C3CD19B6906991F4698
:10473C00049B0A4412B251465846B84709F101038A
:10474C004FFA83F9079B5B0807930A9B013B13F015
:10475C00FF030A93DED1059F01377BB20593099BBA
:10476C00013B13F0FF030993B9D1049B43450FD0D0
:10477C00012DDBF800303BD1012C39D10899CDF853
:10478C00008005311C6A3246082309B25846A047FE
:10479C00DBF80030DB6A584611B0BDEC028BBDE88B
:1047AC00F04F1847069914FB02F20A440499019140
:1047BC000094DB6918EE101A1F4612B22B465846AD
:1047CC00B847BBE7049A4245B8D0012D1FFA89F2CD
:1047DC0007D1012C05D19B6906991F460A44434613
:1047EC00A8E70699CDF8048014FB02F20A44DFE72F
:1047FC000B9ACDF8048002EB8201089AE4000A447B
:10480C0011460094DC6932462B4609B25846A04743
:10481C00BEE7137A516812680B92FF1AFFB201EBD4
:10482C00C70331F8372006929A780992DA780C92FD
:10483C00012D93F9052093F906A00A9201D8012CB9
:10484C0057D9BDF9283008930FFA8AF30793DBF890
:10485C00003058465B699847B3B24FF000080E938E
:10486C001AFA86F3C14647460F930C9B9F428FD290
:10487C00079B0E9A3B4403FB0423002205920F9ADC
:10488C001BB202EB070A08EE103A0FFA8AFA4346FB
:10489C00099A0599914241D25A1CD2B25B070D92EA
:1048AC0007D1069B06990B9A01339BB212F8019023
:1048BC00069319F0800F12D0012DDBF80030BDF8F3
:1048CC000C101AD1012C18D10A9A9B691144059A23
:1048DC0011441E465246049B09B25846B047059EE9
:1048EC000136F3B24FEA490905935FFA89F90D9B3A
:1048FC00CEE70023CDE90733A9E70598089A0244CF
:10490C0002FB0511049ACDE90042DB6918EE102A6E
:10491C001E4609B22B465846B047E0E7099B0137C3
:10492C0098445FFA88F8FFB29FE711B0BDEC028B98
:10493C00BDE8F08F75670B00F0B5026A85B00446D0
:10494C000B46002A34D10A2908D1438A0282427EBE
:10495C0003EBC2036382012005B0F0BD0D29FAD030
:10496C00E17E007E657E71B1B4F91060062111FB09
:10497C000061B4F90C60B142C1BFB4F912102282CB
:10498C0001EBC5026282E28A0192A28A0092CDE911
:10499C000205B4F91220B4F910102046FFF75EFEA0
:1049AC00237E228A03EB430302EB43032382D2E7E9
:1049BC000A2907D100230382417E927A438A01FBA4
:1049CC000233C7E70D29C6D0157AA942C3D3517A51
:1049DC009942C0D351685D1BEDB201EBC505A878B7
:1049EC0028B3E97819B3E17E267E677E91B195F9FB
:1049FC0005100844B4F9101006FB0011B4F90C00B2
:104A0C00814207DD00202082B4F91210927A02FB59
:104A1C0007126282E28A0192A28A0092CDE90267B1
:104A2C00B4F91220B4F910102046FFF717FE2979BB
:104A3C00227E238A01FB0233B8E7012938BF01210A
:104A4C00017641767047000010B5064B03600446B2
:104A5C00006D08B100F0A6FD204600F0D1F820460C
:104A6C0010BD00BFD86C0B0010B50446FFF7ECFF6F
:104A7C0020467021FFF711FB204610BD30B585B0E4
:104A8C0004460D4601F056FD104A1149CDE90121AD
:104A9C004FF0FF328021034600922046202200F086
:104AAC0027F90C4B23600023C4E9143504F158009A
:104ABC0000F054F804F1600000F050F804F16800C4
:104ACC0000F04CF8204605B030BD00BF801A06003F
:104ADC00A0860100D86C0B0013B50446503000F0D2
:104AEC0059FD636DD90705D50222042104F1580044
:104AFC0000F048F8636D9A0705D50022032104F1F4
:104B0C00600000F03FF8636D5B0705D5022211468B
:104B1C0004F1680000F036F8012300933C220221D6
:104B2C00204600F0EDF902B010BD10B5436DD90769
:104B3C00044602D5583000F032F8636D9A0703D55D
:104B4C0004F1600000F02BF8636D5B0705D504F1F0
:104B5C006800BDE8104000F022B810BD00210A2208
:104B6C00C0E900127047002310B50446C17183716F
:104B7C0088B201F071FC08B10323A37100F0FAFCB8
:104B8C00206010BD38B50C4605461146A0B201F0A8
:104B9C0039FC21462846BDE83840FFF7E4BF38B55C
:104BAC000446C07901F058FCA579003825F00803BB
:104BBC0018BF0120C5F340058542A3710AD000F04F
:104BCC00D9FCA379206083F00203A371A079C0F310
:104BDC00C00038BD00F0CEFC2368C01AA3889842F0
:104BEC00F4D3A37903F00103AB42EFD000F0C2FC85
:104BFC00A379206083F0010343F00803E5E700008C
:104C0C0010B5044B03600446C06A08B100F0A6FE60
:104C1C00204610BDE4710B0010B50446FFF7F0FF01
:104C2C0020465021FFF739FA204610BD002910B557
:104C3C004BDBB0F90C408C4247DD002A45DBB0F968
:104C4C000E40944241DD847E022C1FD0032C26D0D2
:104C5C00012C04D10489D24314440A4621B2012BFD
:104C6C0023D0022B32D083BB002A13460489C06A9E
:104C7C00B8BFD31DDB1013FB041102F00702012394
:104C8C009340425C22EA030242541EE00489013C38
:104C9C00611A4489D243224409B212B2DFE7448933
:104CAC00013C641A114622B2D9E7002A0489134642
:104CBC00B8BFD31DDB1013FB0411C36A02F007004D
:104CCC0001228240585C02435A5410BD002A1346FC
:104CDC000489C06AB8BFD31DDB1013FB041102F0AA
:104CEC000702012303FA02F2435C5A40CCE70000AE
:104CFC0070B504461D460026FFF746FC114B236099
:104D0C00666215B901F016FC0546FF2384F83330B2
:104D1C0084F836309DF9103084F837300A4BA36391
:104D2C00012384F83C30059BA3644FF6FF72069B6D
:104D3C00A286C4E90A562664A4F84460E3642046BB
:104D4C0070BD00BFE4710B00306D0B00F8B504466C
:104D5C00806A0D4690B194F9301001F01BFAA06AEC
:104D6C00036800219B689847A06A036829469B68E2
:104D7C009847A06ABDE8F84001F013BA94F93530B1
:104D8C00014698B201F04FFB606A20B12946BDE89C
:104D9C00F84000F0EDBE0826802794F9330005EAB0
:104DAC00070180B201F03FFB94F93400012180B27D
:104DBC0001F039FB94F93400002180B201F033FB8F
:104DCC00013E4FEA5707E8D1F8BD38B50446806A72
:104DDC000D4680B1A16C01F0CFF9002D204614BF17
:104DEC00A721A621FFF7B2FFA06A88B1E16CBDE84C
:104DFC00384001F0C1B9606A18B104F1380100F013
:104E0C0049FE94F93600002180B201F00CFBE4E776
:104E1C0094F93600012180B201F005FB606A18B1EB
:104E2C00BDE8384000F01CBE38BD2DE9F8430446FF
:104E3C00806A0D468F1840B394F9301001F0AAF92E
:104E4C00A06A036800219B6898470126AF42A06ABC
:104E5C0017D01F2E0CD901F0A4F994F93010A06AC8
:104E6C0001F098F9A06A036800219B689847012615
:104E7C00A06A15F8011B036801369B689847F6B2C7
:104E8C00E4E7BDE8F84301F08CB994F935300146FC
:104E9C0098B201F0C8FABD4222D0606A15F8019BA5
:104EAC0018B1494600F064FEF5E708264FF080087B
:104EBC0094F9330009EA080180B201F0B4FA94F9CC
:104ECC003400012180B201F0AEFA94F934000021D3
:104EDC0080B201F0A8FA013E4FEA5808E8D1DAE7AF
:104EEC00BDE8F883B0F90A30DA1D48BF03F10E02B1
:104EFC00B0F90830C06AD2105A43002101F054BBFB
:104F0C002DE9FF411E46C36A9DF8288004460F46D2
:104F1C001546C3B12046FFF7E5FFB4F90A00B4F912
:104F2C000810202821DC202301222038CDE9013271
:104F3C0000EBD07073237339009301EBD171894B63
:104F4C0040F34F0221E0B0F90A30D81D48BF03F1FD
:104F5C000E00B4F90830C010584300F0F7FCE062C2
:104F6C000028D7D104B0BDE8F0814038C0F3C0327E
:104F7C0002FA80F240230120CDE90130522352394C
:104F8C000093794B01EBD1715210204641F34F0144
:104F9C00FFF710FBA06A84F83170002878D0002D40
:104FAC0074D1B4F90A30202B0CBF3C253D2584F874
:104FBC003050B8F1000F01D001F0E2F8FEB194F9D5
:104FCC00370000281BDB012180B201F01BFA94F999
:104FDC003700012180B201F026FA012000F084FE96
:104FEC0094F93700002180B201F01DFA0A2000F07C
:104FFC007BFE94F93700012180B201F014FAA06A0B
:10500C00002874D0A16C01F0B7F80422574920464F
:10501C00FFF70BFF61890139C9B22046FFF796FEF5
:10502C00534904222046FFF700FF94F93130012B3D
:10503C000CBF102114212046FFF788FE04224D4995
:10504C002046FFF7F2FEA3684B4A93425CD14B49D2
:10505C0004222046FFF7E9FED9212046FFF776FE11
:10506C0094F93130012B0CBF2221F1212046FFF79E
:10507C006DFE204642490622FFF7D7FEA06A0028A3
:10508C0063D0E16C01F078F801206BE76DB28EE72C
:10509C0094F93500012180B201F0B4F994F936008D
:1050AC00012180B201F0AEF994F93600012180B2F1
:1050BC0001F0B9F9656A3DB1B8F1000F3FF47EAF6C
:1050CC00284600F0B9FC79E794F93300012180B24D
:1050DC0001F098F994F93400012180B201F092F9B1
:1050EC0094F93400294680B201F09DF966E7606AB4
:1050FC0018B104F1380100F0CDFC94F93600002110
:10510C0080B201F090F980E71E4A93420ED11E49FD
:10511C0003222046FFF789FE94F93130012B0CBF96
:10512C009F21CF212046FFF711FE95E7174A9342A6
:10513C0092D1174903222046FFF777FE94F93130BC
:10514C00012B0CBF1021AF21ECE794F936000121A3
:10515C0080B201F068F9606A002895D000F080FCFC
:10516C0092E700BFFC6F0B003C6D0B0044720B0010
:10517C0048720B004C720B008000200056720B0022
:10518C0050720B00800040005A720B00600010003F
:10519C005D720B0070B5002ABDF810503DDBB0F904
:1051AC000A40944239DD0029BEBF5B181BB20021B6
:1051BC00B0F90840CE18A642C4BF631A1BB2002B2C
:1051CC002BDDC06AD61014FB0611014402F0070057
:1051DC0001228240012DD2B216D0022D0BD0E5B99E
:1051EC00D243D2B20B44994217D011F8010B1040A4
:1051FC0001F8010CF7E70B4499420ED011F8010BA2
:10520C00504001F8010CF7E70B44994205D011F816
:10521C00010B104301F8010CF7E770BDF0B5002944
:10522C00BDF8145076DBB0F90860B14272DA002A8E
:10523C00BEBF9B181BB20022B0F90A40D718A74278
:10524C00C4BFA31A1BB2002B64DDC2F3C404C76A2B
:10525C0016FB041612F00702DBB207EB060423D090
:10526C00C2F10802D2B22D4993423CBF4FF0FF0C61
:10527C00A2EB030E895C3CBF4CFA0EFC0CEA01015C
:10528C00012D07D0022D2ED04DB917F806C02CEAEF
:10529C00010103E017F806C041EA0C01B95593422D
:1052AC0038D3B0F908100C449A1AD2B2072A0ED986
:1052BC00022D1DD113462178C9432170083BB0F94A
:1052CC000810DBB2072B0C44F5D802F007020AB326
:1052DC00134B012D9B5C1AD0022D1CD0D5B9227812
:1052EC0022EA030315E017F806C081EA0C01D5E7A2
:1052FC00291E18BF01214942C9B213462170083B2F
:10530C00B0F90860DBB2072B3444F7D8DDE722781C
:10531C0013432370F0BD22785340FAE734720B002C
:10532C003C720B0070B41446827EBDF80C60022AED
:10533C000DD0032A18D0012A11D10289E443144458
:10534C0024B203960A46214670BCFFF767BF428918
:10535C000589E44319441444691A24B209B203962A
:10536C00224670BCFFF716BF45891944691A09B269
:10537C00E7E730B41446827EBDF80850022A0DD0FF
:10538C00032A18D0012A11D1E2180489A41A24B2D4
:10539C0002950A46214630BCFFF7FCBE0289C94380
:1053AC001144E2184489A41A09B224B20295224687
:1053BC0030BCFFF733BF4289C943114409B2E7E758
:1053CC002DE9F8430446806A002842D0A16C00F015
:1053DC00D3FE474905222046FFF727FD21890139D5
:1053EC002046C9B2FFF7B2FCB4F90A30DE1D48BF43
:1053FC0003F10E06D4E90A052389F61013FB06F611
:10540C0015FA86F600283AD094F9301000F0C2FE56
:10541C00A06A036840219B6898470127B542A06A9F
:10542C0024D01F2F0CD900F0BCFE94F93010A06AC8
:10543C0000F0B0FEA06A036840219B6898470127E2
:10544C00A06A15F8011B036801379B689847FFB2E7
:10545C00E4E7606A18B104F1380100F01BFB94F921
:10546C003600002180B200F0DEFFB2E700F099FEBA
:10547C00A06A78B3E16CBDE8F84300F07DBE94F906
:10548C003500012180B200F0CEFFAE42F0D0606A50
:10549C0015F8019B18B1494600F06AFBF5E708279F
:1054AC004FF0800894F9330009EA080180B200F04B
:1054BC00BAFF94F93400012180B200F0B4FF94F9E2
:1054CC003400002180B200F0AEFF013F4FEA5808D3
:1054DC00E8D1DAE794F93600012180B200F0A3FF9D
:1054EC00606A18B1BDE8F84300F0BABABDE8F883B9
:1054FC0060720B0008B5024B1B689B68019308BDDA
:10550C006802030008B5024B1B68DB68019308BDF9
:10551C006802030008B5024B1B689B68019308BD29
:10552C002C02030008B5024B1B68DB68019308BD15
:10553C002C02030008B5024B1B681B69019308BDC4
:10554C002C02030008B5024B1B685B69019308BD74
:10555C002C02030008B5024B1B685B68019308BD65
:10556C001802030008B5024B1B68DB68019308BDE9
:10557C001802030008B5024B1B685B69019308BD58
:10558C001802030008B5024B1B68DB6E019308BDC3
:10559C003402030008B5024B1B681B6B019308BD5A
:1055AC004802030008B5024B1B685B6B019308BDF6
:1055BC004802030008B5024B1B685B6C019308BDE5
:1055CC004802030008B5024B1B685B69019308BDD8
:1055DC006402030008B5024B1B68DB68019308BD2D
:1055EC003C02030008B5024B1B681B69019308BD04
:1055FC003C02030008B5024B1B685B69019308BDB4
:10560C003C02030008B5024B1B689B69019308BD63
:10561C003C02030008B5024B1B68DB69019308BD13
:10562C003C02030008B5024B1B681B6A019308BDC2
:10563C003C02030008B5024B1B689B6A019308BD32
:10564C003C02030008B5024B1B681B6C019308BDA0
:10565C003C02030008B5024B1B681B68019308BD94
:10566C002802030008B5024B1B68DB68019308BDD8
:10567C002802030008B5024B1B689B69019308BD07
:10568C002802030008B5024B1B68DB69019308BDB7
:10569C002802030008B5024B1B681B6A019308BD66
:1056AC002802030008B5024B1B685B6A019308BD16
:1056BC002802030008B5024B1B689B6A019308BDC6
:1056CC002802030008B5024B1B68DB6A019308BD76
:1056DC002802030008B5024B1B681B6B019308BD25
:1056EC002802030008B5024B1B685B6B019308BDD5
:1056FC002802030008B5024B1B681B6C019308BD04
:10570C002802030008B5024B1B681B68019308BDF7
:10571C008C02030008B5024B1B689B68019308BD03
:10572C008C02030008B5024B1B681B69019308BD72
:10573C008C02030008B5024B1B681B68019308BD63
:10574C003002030008B5024B1B685B69019308BD6E
:10575C003002030008B5024B1B68DB69019308BDDE
:10576C003002030008B5024B1B681B6A019308BD8D
:10577C003002030008B5024B1B685B6A019308BD3D
:10578C003002030008B5024B1B68DB6B019308BDAC
:10579C003002030008B5024B1B681B6C019308BD5B
:1057AC003002030008B5024B1B685B6C019308BD0B
:1057BC003002030008B5024B1B681B68019308BD3F
:1057CC004C02030008B5024B1B681B69019308BD12
:1057DC004C02030008B5024B1B685B69019308BDC2
:1057EC004C02030008B5024B1B689B69019308BD72
:1057FC004C02030008B5024B1B68DB69019308BD22
:10580C004C02030008B5024B1B681B6A019308BDD0
:10581C004C02030008B5024B1B685B6B019308BD7F
:10582C006002030008B5024B1B685B68019308BD5E
:10583C002002030008B5024B1B685B69019308BD8D
:10584C002002030008B5024B1B68DB6A019308BDFC
:10585C002002030008B5034B1B68D3F88830019372
:10586C0008BD00002002030008B5034B1B68D3F8E9
:10587C009430019308BD00002002030008B5024BD0
:10588C001B685B68019308BD4002030008B5024B1E
:10589C001B689B68019308BD4002030008B5024BCE
:1058AC001B68DB68019308BD4002030008B5024B7E
:1058BC001B681B69019308BD4002030008B5024B2D
:1058CC001B685B69019308BD4002030008B5024BDD
:1058DC001B689B69019308BD4002030008B5024B8D
:1058EC001B68DB69019308BD4002030008B5024B3D
:1058FC001B681B6A019308BD4002030008B5024BEC
:10590C001B681B6B019308BD4002030008B5024BDA
:10591C001B685B6B019308BD4002030008B5024B8A
:10592C001B681B6C019308BD4002030008B5024BB9
:10593C001B685B6C019308BD4002030008B5024B69
:10594C001B68DB6B019308BD4402030008B5024BD6
:10595C001B681B68019308BD1C02030008B5024BB1
:10596C001B685B68019308BD1C02030008B5024B61
:10597C001B685B6A019308BD1C02030008B5024B4F
:10598C001B681B6C019308BD1C02030008B5024B7D
:10599C001B685B6C019308BD1C020300002240686D
:1059AC001146FFF7A3BF002240681146FFF7AEBFB8
:1059BC0040680022FFF7A2BF4068002281F001017D
:1059CC00FFF78CBF002340681A461946FFF77EBFCD
:1059DC00002340681A461946FFF770BF0022406842
:1059EC001146FFF763BF002240681146FFF74EBF18
:1059FC00406800220221FFF751BF002340681A467D
:105A0C00FFF73CBF024B03225A60024A1A607047F0
:105A1C00C4E6032070720B000021FFF7C3BE002107
:105A2C00FFF7B8BE10B5044608462170FFF792FE8A
:105A3C0000236360204610BD13B504460078FFF7C1
:105A4C00EEFF58B9207801904FF6FF71FFF772FE08
:105A5C00019802B0BDE81040FFF7DEBF02B010BDE8
:105A6C000078FFF7D9BF0000400830B5186000245B
:105A7C0018688842E5B206D90134082C02D04008D7
:105A8C001860F5E70725024B5B5D137030BD00BF56
:105A9C00A4720B002DE9F04306468FB000780C463B
:105AAC00FFF7BDFF00281BDB35781422002109A865
:105ABC0000F07AFD0B23002209A92846ADF824300A
:105ACC00FFF758FE9DF82D3013B19DF82C5055B1B1
:105ADC000027B946B846012523795DB1C3B1002032
:105AEC000FB0BDE8F083DDF830809DF834909DF860
:105AFC003570F1E7002B35D1A368434508D18DF8FB
:105B0C0020908DF82170BDF82020A3899A42E6D010
:105B1C000023A1688DF80F300A9804AB0DF10F0229
:105B2C00FFF7A2FF217985B989B9A36843450ED344
:105B3C008DF820908DF82170BDF82020A3899A4211
:105B4C0005D1049B434502D1C9E70029F9D10023B3
:105B5C000193637B00939DF80F20237B3078FFF734
:105B6C0011FEBCE7CDE900552B462A460121F5E78D
:105B7C0008B50078FFF7E6FDC0B208BD054B022260
:105B8C001A60054B054A9A600020C3E90000FFF734
:105B9C0049BE00BFD8E60320CCE603200000FFFF7F
:105BAC00024800230360FFF705BD00BFDCE60320BD
:105BBC00F8B506460D468F180024BD420CD033684C
:105BCC0015F8011B9B6830469847031E01DB1C44EB
:105BDC00F3E7002C08BF1C462046F8BD13B504465D
:105BEC00084659B10191FEF713FA23680199DB6855
:105BFC000246204602B0BDE81040184702B010BD66
:105C0C0008B5FFF7EBFF08BD03689B68184738B56C
:105C1C000D210546FFF7F8FF0A2104462846FFF739
:105C2C00F3FF204438BD30B58BB00023012A8DF82A
:105C3C00243098BF0A2209AC0D46B1FBF2F101FBEE
:105C4C00125303F0FF03092B94BF30333733DBB20D
:105C5C00AA4204F8013DEFD92146FFF7BFFF0BB074
:105C6C0030BD2DE9F04186B000AF05460E46381D1B
:105C7C00142114463B60FFF779FE13280ED8391D0A
:105C8C002846FFF7ABFF04461EB12846FFF7BFFFBF
:105C9C00044420461837BD46BDE8F08100F10803E6
:105CAC0023F00703E846ADEB030D2246411C3B688D
:105CBC006846FFF75BFE69462846FFF78FFF0446F0
:105CCC00C546E1E7014B024A1A607047E0E6032043
:105CDC00AC720B00024B1A68024B1A60704700BF83
:105CEC00B8E50320E4E603200021FFF7A3BD000084
:105CFC00014B00229A607047E8E6032000220274F0
:105D0C001046FFF7FFBC007C0021FFF703BD007CB1
:105D1C000021FFF707BD0000014B1860704700BF62
:105D2C00BCE5032008B50B4B43B100F063F90368E5
:105D3C001B699847002801DDAFF30080064B43B187
:105D4C0000F0B8FB03681B699847002801DDAFF32E
:105D5C00008008BD000000000000000008B5FFF73F
:105D6C00E1FFFFF707FC014B186008BD40E703207B
:105D7C000548064A064908B5121A00F007FC054BFF
:105D8C00054A1A6008BD00BF00F4032004F4032088
:105D9C002C750B0000F403201E1C279A07B500235A
:105DAC0000931A466FF07701FFF75EFD03B05DF8C4
:105DBC0004FB000007B543880A2B08D0502B0BD1ED
:105DCC00094B1B684BB103B05DF804EB1847FFF7A8
:105DDC00E5FF03B05DF804FB002300931A466FF057
:105DEC007701FFF741FDF4E7FCE6032010B51248FC
:105DFC000021FFF7CBFD114B1A68114B9A42114B46
:105E0C000CBF012200221A7001D0FFF7B1FFFFF77F
:105E1C00A1FB044600F0D0FB0B4B13B12046AFF3B3
:105E2C00008000210848FFF789FDBDE810400748B5
:105E3C000021FFF70FBD00BF255D0B0000F4032010
:105E4C001E1C279AF8E6032000000000C15D0B0021
:105E5C00704710B518210446FEF71FF9204610BDF7
:105E6C00F0B5037D062B8DB00E4600F104074FF004
:105E7C00000412D000F1080515F8011D0A22304665
:105E8C00FFF7D1FEAF42044419D0002CF4D02E21E0
:105E9C003046FFF7B9FE0444EEE72F236A46394635
:105EAC000A208DF80040FFF78DFB6846FEF7B0F82E
:105EBC0033680246DB6869463046984704462046FC
:105ECC000DB0F0BD10B5054B0446112240F8043B53
:105EDC00002100F069FB204610BD00BFD4720B00FE
:105EEC000346074A10B543F8042B01F1100251F890
:105EFC00044B43F8044B9142F9D10A781A7010BD47
:105F0C00D4720B0010B59DF8084044EA032343EA11
:105F1C00024242EA016104234160037510BD000096
:105F2C0007B5064B0360CB7800938B784A780978D9
:105F3C00FFF7E8FF03B05DF804FB00BFD4720B0061
:105F4C00417470477047704708B50021007CFFF71B
:105F5C0049FC40EAE07008BD08B50121007CFFF760
:105F6C0041FC40EAE07008BD08B5007CFFF732FC4C
:105F7C0020EAE07008BD08B5007CFFF723FC20EA9E
:105F8C00E07008BD13B50446007C0191FFF722FCBC
:105F9C000028019901DC607C20B1207CFFF72AFCF1
:105FAC0020EAE07002B010BD007CFFF72BBC10B5EE
:105FBC0014210446FEF771F8204610BD10B54FF4BD
:105FCC007A73044608460021C4E90113044B23608C
:105FDC000123207463741146FFF7ECFB204610BDBF
:105FEC00E8720B0010B514220446002100F0DCFA14
:105FFC00204610BD10B50F4C88B003A8FFF7F2FF78
:10600C002178BFF35B8F11F001010FD12046019174
:10601C00FEF752F8019948B103AA0748FFF7CEFFE3
:10602C002046FEF74EF8054800F0AAFA024808B0E0
:10603C0010BD00BF00E7032004E70320515F0B00F5
:10604C0070474174704708B5007CFFF7F3FA20EAFB
:10605C00E07008BD08B5007CFFF7C4FA20EAE070D8
:10606C0008BD08B5007CFFF7CDFA40EAE07008BD2A
:10607C0008B5007CFFF7BEFA40EAE07008BD007C72
:10608C00FFF7C8BA37B5457C04462DB1207C03B068
:10609C00BDE83040FFF79EBA007C0191FFF7CAFAC9
:1060AC0000280199F2DC284603B030BD10B514214C
:1060BC000446FDF7F2FF204610BD000010B54FF46A
:1060CC007A730446084611460022C4E90123044BA6
:1060DC002360012320746374FFF7B4FA204610BDCB
:1060EC0018730B007047F8B5064615460C468F180A
:1060FC00BC4206D0336814F8011B9B6830469847A5
:10610C00F6E72846F8BD007C0022FFF7C3BA007CF6
:10611C000021FFF7C7BA007C0021FFF7CBBA007C47
:10612C000021FFF7CFBA007C0021FFF7D3BA10B5DE
:10613C0014210446FDF7B1FF204610BD38B50446C6
:10614C0015464FF47A730022C4E90123094B2174DC
:10615C00084623602946FFF7CDFABF3008D16B699A
:10616C00DB0705D56868FFF7F9FBE868FFF7F6FB76
:10617C00204638BD48730B00007C0022FFF76ABA3A
:10618C000023007C1A461946FFF76CBA007C0022EB
:10619C00FFF770BAC9B2FFF7F9BF007C0022FFF716
:1061AC0071BA0121FFF7F9BF002240681146FFF7D1
:1061BC007DBB002240681146FFF798BB0022406867
:1061CC001146FFF7A3BB40680022FFF797BB40685E
:1061DC00002281F00101FFF781BB002340681A46C1
:1061EC001946FFF773BB002340681A461946FFF7A0
:1061FC0065BB002240681146FFF748BB406800228F
:10620C000221FFF74BBB002340681A46FFF736BB51
:10621C00024B04225A60024A1A60704718E70320A6
:10622C0070730B00002340681A46FFF727BB4068C9
:10623C0000220221FFF732BB002240681146FFF713
:10624C0025BB002240681146FFF730BB0023406895
:10625C001A461946FFF732BB002340681A46194606
:10626C00FFF734BB40680021FFF758BB40680021A2
:10627C00FFF75CBB4068002281F00101FFF72EBBE9
:10628C0040680022FFF73ABB002240681146FFF736
:10629C003DBB002240681146FFF728BB2DE9F043B7
:1062AC0095B014460D460746FFF70CFE00211C2244
:1062BC000DA8009100F078F940230C9320466B4612
:1062CC000CAA0021FFF71EF9044600284BD1024608
:1062DC0001216868FFF7EAFA0221804622466868C5
:1062EC00FFF7E4FA009E81462146002E3BD00029A0
:1062FC0039D17368022B03D00A2B11D0F669F4E75D
:10630C00B8F1000FFAD0716906A8043107ADFFF798
:10631C0007FE0FCD3C1D0FC42B6823704146EDE7E3
:10632C00B9F1000FEAD07469102201A800F03CF911
:10633C0006238DF8143001AD04F1080318341868E5
:10634C0059682A4603C20833A3421546F7D101A95E
:10635C0006A807ADFFF7C4FD0FCD3C1D0FC42B687D
:10636C0023704946CAE70098FFF7C4F8384615B0C1
:10637C00BDE8F083024B034A1A6000225A60704752
:10638C0020E70320AC730B00232813B502D900209F
:10639C0002B010BDA0F10B03022B1AD8174C2178B8
:1063AC00BFF35B8F11F001010BD120460191FDF77A
:1063BC0083FE019928B11248FFF734FB2046FDF704
:1063CC0080FE0F4B1878FFF7CDF90028DFD10120A4
:1063DC00DEE7012809D800F0ADF80021007CFFF7BA
:1063EC0081F980F00100C0B2D2E709380128EED85B
:1063FC0000F060F8007CFFF715F9F2E7B8E603202F
:10640C00BCE60320232838B504460D460AD8FF29DC
:10641C0008D0FFF7B9FF28B129462046BDE838401F
:10642C00FFF778B838BD38B504460D46FFF77AF853
:10643C00FF2810D0062804D84D2323FA00F0C307F8
:10644C0009D42046FFF7A0FF28B129462046BDE815
:10645C003840FFF76FB838BD10B50446FFF762F847
:10646C00031FDBB2012B08D92046FFF78DFF20B1AB
:10647C002046BDE81040FFF765B8002010BD7047FE
:10648C0038B5044614252A46002100F08DF82580E5
:10649C004025074925812846258200F06FF80449DC
:1064AC006060284600F06AF8E060204638BD00BF06
:1064BC00E0730B0030B50E4D2978BFF35B8F11F0F4
:1064CC00010487B011D12846FDF7F6FD68B101A88B
:1064DC00FFF7D6FF01AA21460648FFF7EFFD284635
:1064EC00FDF7EFFD044800F04BF8024807B030BD53
:1064FC0028E703202CE703208B640B007047000077
:10650C0038B50A4B03600123044643610849202037
:10651C0000F034F8202560600549A560284600F09D
:10652C002DF8C4E90305204638BD00BF1800010052
:10653C00E0730B0030B50E4D2978BFF35B8F11F073
:10654C00010487B011D12846FDF7B6FD68B1684645
:10655C00FFF7D6FF6A4621460648FFF7EFFD2846AF
:10656C00FDF7AFFD044800F00BF8024807B030BD52
:10657C0044E7032048E7032009650B00FDF78BBDBA
:10658C00002301461A46184600F044B80A449142CA
:10659C0000F1FF3300D1704710B511F8014B03F82F
:1065AC00014F9142F9D110BD02440346934200D1F0
:1065BC00704703F8011BF9E738B5104B1D68AB6B3E
:1065CC000446B3B91820FFF7C1F90246A86320B9F5
:1065DC000B4B0C484221FFF7D1F90B490B4BC0E98F
:1065EC0000130B4B83600B23838100210120C2E934
:1065FC000401AB6B00221C615A6138BDBCE5032061
:10660C00E1730B00F8730B000E33CDAB34126DE657
:10661C00ECDE05002DE9F843DFF8B8800646D8F823
:10662C0000001F460D46914600F056F8254B1C689D
:10663C0034B9254C1C60254B13B11B68C4F8883049
:10664C0063681F2B07DDD8F8000000F047F84FF007
:10665C00FF30BDE8F8834EB3D4F8880088B91C4BE2
:10666C0023B9D8F8000000F038F8F0E74FF4847044
:10667C00FFF76CF90028F4D00023C0E94033C4F8CC
:10668C008800636840F8239001229A4000EB830154
:10669C00D0F800311343C0F80031022EC1F88070DD
:1066AC0002BFD0F804311343C0F804316368D8F842
:1066BC0000005A1C0233626044F8235000F00EF8BC
:1066CC000020C6E7E8E703205CE703200000000099
:1066DC0059590B0020E603207047704770470000A3
:1066EC002D400B0069400B0091400B0095400B00B6
:1066FC000000000043616C6C206F6E207075726539
:10670C00207669727475616C007761746368646F6C
:10671C0067207265736574006E6F726D616C2072A8
:10672C00657365740064656661756C7420004D5307
:10673C0042004C5342003C53504953657474696E8B
:10674C0067732064656661756C743E003C535049F8
:10675C0053657474696E67732025732575202573D2
:10676C00204D4F444525753E0000000000003E5B67
:10677C004F5B3E3E6B4F6B3E1C3E7C3E1C183C7E82
:10678C003C181C577D571C1C5E7F5E1C00183C1867
:10679C0000FFE7C3E7FF0018241800FFE7DBE7FF63
:1067AC0030483A060E2629792926407F05050740F0
:1067BC007F05253F5A3CE73C5A7F3E1C1C08081CB1
:1067CC001C3E7F14227F22145F5F005F5F06097FEF
:1067DC00017F006689956A606060606094A2FFA288
:1067EC009408047E040810207E201008082A1C0837
:1067FC00081C2A08081E101010100C1E0C1E0C3041
:10680C00383E3830060E3E0E060000000000000038
:10681C005F00000007000700147F147F14242A7FF8
:10682C002A122313086462364956205000080703C5
:10683C0000001C2241000041221C002A1C7F1C2A43
:10684C0008083E0808008070300008080808080096
:10685C000060600020100804023E5149453E004291
:10686C007F400072494949462141494D3318141261
:10687C007F1027454545393C4A4949314121110989
:10688C00073649494936464949291E00001400007B
:10689C000040340000000814224114141414140095
:1068AC004122140802015909063E415D594E7C12E1
:1068BC0011127C7F494949363E414141227F414179
:1068CC00413E7F494949417F090909013E414151F6
:1068DC00737F0808087F00417F41002040413F0141
:1068EC007F081422417F404040407F021C027F7F82
:1068FC000408107F3E4141413E7F090909063E4193
:10690C0051215E7F09192946264949493203017FE5
:10691C0001033F4040403F1F2040201F3F40384074
:10692C003F631408146303047804036159494D430D
:10693C00007F4141410204081020004141417F0485
:10694C00020102044040404040000307080020546C
:10695C005478407F284444383844444428384444CC
:10696C00287F385454541800087E090218A4A49C9B
:10697C00787F0804047800447D40002040403D00AE
:10698C007F1028440000417F40007C047804787C10
:10699C00080404783844444438FC18242418182477
:1069AC002418FC7C08040408485454542404043F60
:1069BC0044243C4040207C1C2040201C3C40304067
:1069CC003C44281028444C9090907C4464544C4493
:1069DC000008364100000077000000413608000234
:1069EC00010204023C2623263C1EA1A161123A405E
:1069FC0040207A38545455592155557941225454D4
:106A0C007842215554784020545579400C1E5272CE
:106A1C0012395555555939545454593955545458AB
:106A2C000000457C410002457D420001457C407DD3
:106A3C001211127DF0282528F07C54554500205465
:106A4C00547C547C0A097F4932494949323A4444BE
:106A5C00443A324A4848303A4141217A3A4240203D
:106A6C0078009DA0A07D3D4242423D3D4040403DCE
:106A7C003C24FF2424487E4943662B2FFC2F2BFFFC
:106A8C000929F620C0887E0903205454794100005E
:106A9C00447D413048484A32384040227A007A0AD4
:106AAC000A727D0D19317D2629292F28262929299D
:106ABC002630484D402038080808080808080838CF
:106ACC002F10C8ACBA2F102834FA00007B00000835
:106ADC00142A142222142A14085500550055AA55BC
:106AEC00AA55AAFF55FF55FF000000FF001010101B
:106AFC00FF00141414FF001010FF00FF1010F01012
:106B0C00F0141414FC001414F700FF0000FF00FF35
:106B1C001414F404FC141417101F10101F101F145D
:106B2C0014141F00101010F0000000001F101010A3
:106B3C00101F10101010F010000000FF101010109B
:106B4C001010101010FF10000000FF140000FF00C8
:106B5C00FF00001F10170000FC04F414141710178A
:106B6C001414F404F40000FF00F714141414141497
:106B7C0014F700F7141414171410101F101F14140A
:106B8C0014F4141010F010F000001F101F0000007F
:106B9C001F14000000FC140000F010F01010FF1087
:106BAC00FF141414FF141010101F00000000F0103C
:106BBC00FFFFFFFFFFF0F0F0F0F0FFFFFF00000021
:106BCC000000FFFF0F0F0F0F0F3844443844FC4AEE
:106BDC004A4A347E02020606027E027E0263554950
:106BEC0041633844443C04407E201E2006027E0251
:106BFC000299A5E7A5991C2A492A1C4C7201724CD2
:106C0C00304A4D4D303048784830BC625A463D3E93
:106C1C00494949007E0101017E2A2A2A2A2A444434
:106C2C005F444440514A444040444A51400000FFB4
:106C3C000103E080FF000008086B6B083612362455
:106C4C0036060F090F06000018180000001010007F
:106C5C003040FF0101001F01011E00191D17120019
:106C6C003C3C3C3C00000000000000000000000028
:106C7C0000000000000000000000000045490B006F
:106C8C00BD5B0B00AD400B004B430B004D430B00A9
:106C9C007F430B005B430B006D430B008D420B00DD
:106CAC004B430B0077450B0075450B0097430B00CE
:106CBC00D5430B000F440B0055440B0071440B00E3
:106CCC00F5440B000000000000000000554A0B00CA
:106CDC00754A0B0045490B00BD5B0B00394C0B0092
:106CEC004B430B004D430B007F430B005B430B00EE
:106CFC006D430B008D420B004B430B0077450B0093
:106D0C00D74D0B007F530B0031530B000F440B007E
:106D1C0055440B0071440B00F5440B0000000000BF
:106D2C000000000039420B000D420B000F420B001B
:106D3C0000000000000180000000000000000000C6
:106D4C00038000000000000000000007C0000000ED
:106D5C0000000000000007C0000000000000000060
:106D6C00000FC00000000000000000001FE0000049
:106D7C00000000000000001FE00000000000000008
:106D8C0000003FE00000000000000000003FF000A9
:106D9C0000000000000000007FF000000000000078
:106DAC00001FF87FF0000000000000003FFE7FF0A5
:106DBC00000000000000003FFF7FF000000000001A
:106DCC0000001FFFFBE0000000000000000FFFF9B7
:106DDC00FFC00000000000000FFFF9FFF8000000EA
:106DEC0000000007FFF1FFFF00000000000003FCA3
:106DFC0073FFFF80000000000001FE3FFFFF8000DA
:106E0C000000000000FF1E0FFF000000000000004B
:106E1C007FFE1FFC000000000000003FFFFFF80099
:106E2C000000000000000FDFFFE000000000000089
:106E3C00001F19FFC0000000000000003F3CFF00D5
:106E4C00000000000000007E7CF800000000000044
:106E5C0000007FFE7C0000000000000000FFFFFC33
:106E6C000000000000000000FFFFFE00000000001A
:106E7C00000000FFFFFE0000000000000001FFEF1B
:106E8C00FE0000000000000001FFCFFE000000002B
:106E9C0000000003FF07FE0000000000000003FCE0
:106EAC0007FE0000000000000003F003FE000000DD
:106EBC0000000000018000FE000000000000000047
:106ECC0000007E000000000000000000003E0000FA
:106EDC0000000000000000000C0000000000000793
:106EEC008000FC000003C0000000078001FC0000D3
:106EFC0003C0000000078001FC000003C00000007C
:106F0C00078001E00000001E000000078001E00087
:106F1C0000001E007FE3F79FF9FDE7787BDFC0FFE1
:106F2C00F7FFBFFDFDFF787BDFC0FFF7FFBFFDFD67
:106F3C00FF787BDFC0F0F787BC3DE1FF787BDE009C
:106F4C00F0F787BC3DE1F0787BDE0000F787803DF1
:106F5C00E1E0787BDE007FF7879FFDE1E0787BDE68
:106F6C0000FFF787BFFDE1E0787BDE00F0F787BC20
:106F7C003DE1E0787BDE00F0F787BC3DE1E0787B1B
:106F8C00DE00F0F787BC3DE1E0787BDE00FFF7FF29
:106F9C00BFFDE1E07FFBDFC0FFF7FFBFFDE1E07F5E
:106FAC00FBDFC07CF3F39F3DE1E03E7BCFC00000F4
:106FBC00000000000000000000FFFFFFFFFFFFFFCC
:106FCC00FFFFFFC0FFFFFFFFFD68DB111A31C0FFA1
:106FDC00FFFFFFFD2B5AFB6AEFC0FFFFFFFFFD4BCE
:106FEC005B3B1A33C0FFFFFFFFFD6B5BDB6AFDC031
:106FFC000000600000000000000000000000000025
:10700C0000E0000000000000000000000000000193
:10701C00E00000000000000000000000000001F093
:10702C000000000000000000000000000003F00061
:10703C0000000000000000000000000007F000004D
:10704C00000000000000000000000007F800000035
:10705C00000000000000000000000FF8000000031A
:10706C00C0007E000001E0007F0FF800000003C0AC
:10707C0000FE000001E000FFEFF800000003C0007C
:10708C00FE000001E000FFFFF800000003C000F06C
:10709C000000000F007FFE7FC0000003C000F00066
:1070AC0000000F003FFE7FF83FF1FBCFFCFEF3BC6E
:1070BC003DEFE01FFE7FFF7FFBFFDFFEFEFFBC3DD1
:1070CC00EFE01FC6FFFF7FFBFFDFFEFEFFBC3DEFC7
:1070DC00E00FE3C7FE787BC3DE1EF0FFBC3DEF0084
:1070EC0007FF87FC787BC3DE1EF0F83C3DEF000108
:1070FC00FFFFF0007BC3C01EF0F03C3DEF0001F33E
:10710C007FE03FFBC3CFFEF0F03C3DEF0003E33FDD
:10711C00807FFBC3DFFEF0F03C3DEF0007E73C0057
:10712C00787BC3DE1EF0F03C3DEF0007FFBE00781D
:10713C007BC3DE1EF0F03C3DEF0007FFFE00787BCA
:10714C00C3DE1EF0F03C3DEF000FFFFE007FFBFFA7
:10715C00DFFEF0F03FFDEFE00FFFFF007FFBFFDFF6
:10716C00FEF0F03FFDEFE00FF9FF003E79F9CF9E06
:10717C00F0F01F3DE7E01FF1FF00000000000000F1
:10718C0000000000001F80FF007FFFFFFFFFFFFFDC
:10719C00FFFFFFE01C007F007FFFFFFFFEB46D8848
:1071AC008D18E000001F007FFFFFFFFE95AD7DB541
:1071BC0077E000000F007FFFFFFFFEA5AD9D8D194E
:1071CC00E0000006007FFFFFFFFEB5ADEDB57EE0F1
:1071DC0000000000000000000D4C0B00254C0B00C3
:1071EC0045490B00BD5B0B00394C0B004B430B00AE
:1071FC004D430B007F430B005B430B006D430B00B7
:10720C008D420B004B430B0077450B00D74D0B0009
:10721C007F530B0031530B000F440B0055440B00F4
:10722C0071440B00F5440B000080C0E0F0F8FCFE4C
:10723C00000103070F1F3F7FAED580A8D300408D00
:10724C002000A1C8DB40A4A62EAFDA02818FDA128F
:10725C0081DA02812200FF21000000000000000002
:10726C0000000000075A0B00FD590B00F3590B00EE
:10727C00E9590B00DD590B00D1590B0071620B0061
:10728C0079620B00C5590B00BD590B00B3590B00AB
:10729C00A9590B00A9620B000008101820283038DF
:1072AC006170700025592D256D2D25645425483AA3
:1072BC00254D3A2553257A0061736374696D650019
:1072CC0000000000000000006D5E0B005D5E0B0016
:1072DC005F5E0B000000000000000000535F0B001D
:1072EC00BB5F0B00915F0B00BD5B0B00835F0B0062
:1072FC00555F0B00655F0B00B55F0B00755F0B00F6
:10730C004D5F0B0000000000000000004D600B0002
:10731C00B9600B0091600B00BD5B0B0061600B0052
:10732C007D600B006F600B008B600B004F600B00DF
:10733C0053600B000000000000000000F1600B0027
:10734C003B610B0013610B00F3600B001B610B0026
:10735C0023610B002B610B0033610B00000000005C
:10736C000000000013620B0009620B00FF610B00B0
:10737C00B5610B00F3610B00E7610B0071620B0050
:10738C0079620B00DB610B00D3610B00C9610B0050
:10739C00BF610B00A9620B000000000000000000A0
:1073AC0031620B003B620B0045620B004F620B001D
:1073BC0059620B0065620B0071620B0079620B0065
:1073CC0081620B008D620B0095620B009F620B00BB
:1073DC00A9620B00005245454E54206D616C6C6FD8
:1073EC006320737563636565646564002F6D6E74EB
:1073FC002F776F726B73706163652F776F726B731E
:10740C00706163652F4743432D31302D7069706572
:10741C006C696E652F6A656E6B696E732D4743439D
:10742C002D31302D706970656C696E652D34385F47
:10743C0032303230313132345F31363036313830EF
:10744C003634312F7372632F6E65776C69622F6ED1
:10745C0065776C69622F6C6962632F7374646C69F5
:10746C00622F72616E642E6300000000D9410B0024
:10747C00115A0B00895B0B00AD5B0B00D15C0B0050
:10748C00E15C0B00FD5C0B001D620B0081630B00CB
:10749C00040000001400000003000000474E5500DB
:1074AC009BA71652ABDF7F841DB66C51097A004640
:0474BC0029A5DC9B87
:1074C000C4720B00C0E503200000000000000000B3
:1074D00000000000000000000000000000000000AC
:1074E000000000000000000000000000000000009C
:1074F000000000000000000000000000000000008C
:10750000000000000000000000000000000000007B
:10751000000000000000000000000000000000006B
:0C7520000000000000000000ECE7032069
:04752C00000000005B
:1075360000000102030405060708090A0B0C0D0EDC
:107546000F101112131415161718191A1B1C1D1ECD
:047556001F202800CA
:04755A007856341219
:04000003B000401CED
:00000001FF
